{
  "_format": "hh-sol-artifact-1",
  "contractName": "KycContract",
  "sourceName": "contracts/KycContract.sol",
  "abi": [
    {
      "anonymous": false,
      "inputs": [
        {
          "indexed": true,
          "internalType": "address",
          "name": "previousOwner",
          "type": "address"
        },
        {
          "indexed": true,
          "internalType": "address",
          "name": "newOwner",
          "type": "address"
        }
      ],
      "name": "OwnershipTransferred",
      "type": "event"
    },
    {
      "inputs": [],
      "name": "isOwner",
      "outputs": [
        {
          "internalType": "bool",
          "name": "",
          "type": "bool"
        }
      ],
      "stateMutability": "view",
      "type": "function"
    },
    {
      "inputs": [
        {
          "internalType": "address",
          "name": "addr_",
          "type": "address"
        }
      ],
      "name": "kycCompleted",
      "outputs": [
        {
          "internalType": "bool",
          "name": "",
          "type": "bool"
        }
      ],
      "stateMutability": "view",
      "type": "function"
    },
    {
      "inputs": [],
      "name": "owner",
      "outputs": [
        {
          "internalType": "address",
          "name": "",
          "type": "address"
        }
      ],
      "stateMutability": "view",
      "type": "function"
    },
    {
      "inputs": [],
      "name": "renounceOwnership",
      "outputs": [],
      "stateMutability": "nonpayable",
      "type": "function"
    },
    {
      "inputs": [
        {
          "internalType": "address",
          "name": "addr_",
          "type": "address"
        }
      ],
      "name": "setKycCompleted",
      "outputs": [],
      "stateMutability": "nonpayable",
      "type": "function"
    },
    {
      "inputs": [
        {
          "internalType": "address",
          "name": "addr_",
          "type": "address"
        }
      ],
      "name": "setKycRevoked",
      "outputs": [],
      "stateMutability": "nonpayable",
      "type": "function"
    },
    {
      "inputs": [
        {
          "internalType": "address",
          "name": "newOwner",
          "type": "address"
        }
      ],
      "name": "transferOwnership",
      "outputs": [],
      "stateMutability": "nonpayable",
      "type": "function"
    }
  ],
  "bytecode": "0x608060405260006100176001600160e01b0361006616565b600080546001600160a01b0319166001600160a01b0383169081178255604051929350917f8be0079c531659141344cd1fd0a4f28419497f9722a3daafe3b4186f6b6457e0908290a35061006a565b3390565b61048f806100796000396000f3fe608060405234801561001057600080fd5b506004361061007d5760003560e01c80638f32d59b1161005b5780638f32d59b146100d6578063dc3958cc146100f2578063df235fe414610118578063f2fde38b1461013e5761007d565b806370c9aedd14610082578063715018a6146100aa5780638da5cb5b146100b2575b600080fd5b6100a86004803603602081101561009857600080fd5b50356001600160a01b0316610164565b005b6100a86101d2565b6100ba610263565b604080516001600160a01b039092168252519081900360200190f35b6100de610272565b604080519115158252519081900360200190f35b6100a86004803603602081101561010857600080fd5b50356001600160a01b0316610296565b6100de6004803603602081101561012e57600080fd5b50356001600160a01b03166102fe565b6100a86004803603602081101561015457600080fd5b50356001600160a01b031661031c565b61016c610272565b6101ab576040805162461bcd60e51b8152602060048201819052602482015260008051602061043a833981519152604482015290519081900360640190fd5b6001600160a01b03166000908152600160208190526040909120805460ff19169091179055565b6101da610272565b610219576040805162461bcd60e51b8152602060048201819052602482015260008051602061043a833981519152604482015290519081900360640190fd5b600080546040516001600160a01b03909116907f8be0079c531659141344cd1fd0a4f28419497f9722a3daafe3b4186f6b6457e0908390a3600080546001600160a01b0319169055565b6000546001600160a01b031690565b600080546001600160a01b031661028761036f565b6001600160a01b031614905090565b61029e610272565b6102dd576040805162461bcd60e51b8152602060048201819052602482015260008051602061043a833981519152604482015290519081900360640190fd5b6001600160a01b03166000908152600160205260409020805460ff19169055565b6001600160a01b031660009081526001602052604090205460ff1690565b610324610272565b610363576040805162461bcd60e51b8152602060048201819052602482015260008051602061043a833981519152604482015290519081900360640190fd5b61036c81610373565b50565b3390565b6001600160a01b0381166103b85760405162461bcd60e51b81526004018080602001828103825260268152602001806104146026913960400191505060405180910390fd5b600080546040516001600160a01b03808516939216917f8be0079c531659141344cd1fd0a4f28419497f9722a3daafe3b4186f6b6457e091a3600080546001600160a01b0319166001600160a01b039290921691909117905556fe4f776e61626c653a206e6577206f776e657220697320746865207a65726f20616464726573734f776e61626c653a2063616c6c6572206973206e6f7420746865206f776e6572a2646970667358221220a2ca5cf0b8bd739d11b75e851d0c4371fac5f052deb3b8368629119f847ccb3064736f6c63430006000033",
  "linkReferences": {},
  "deployedLinkReferences": {}
}